:10088C0057454C434F4D4520546F20452D59414EF3
:10089C005452410045525453204C41422C2049495A
:1008AC005420426F6D6261790054686973206973DA
:1008BC00207468652064656D6F206F6600342D4C64
:1008CC00696E65204C434420696E74666163696E81
:0208DC006700B3
:1009480001090101120201080F010D80010EC00109
:100958000F940110D4011310010C14010B18011489
:070968001C010A0801110C3B
:1009B200E4FDFCC3ED9FEC9E5015E4FBFA0BBB007B
:0F09C200010AEB64354A70F50DBD00010C80E4AD
:0109D1002203
:0C0A0400D2A47F047E001209B2C2A4221A
:10097000A90775A080C2A4C2A6E954F0FFC4540F11
:100980004480F5A0120A04E9540F4480F5A0020A3D
:010990000462
:1009D200C2A4C2A675A082120A04AF09120970AF9E
:0909E20008120970AF120209703D
:10099100A90775A0C0C2A4D2A6E954F0FFC4540FA0
:1009A10044C0F5A0120A04E9540F44C0F5A0020A9C
:0109B1000441
:06091B008B158A168917F6
:10092100E4F518AB15AA16A9171209EBFF60171207
:10093100099174012517F517E43516F5160518E523
:0609410018C3941440DD10
:01094700228D
:1008DE001209D2AF0D1209707BFF7A08798C1209BA
:1008EE001BAF0E1209707BFF7A0879A012091BAF9D
:1008FE000F1209707BFF7A0879B512091BAF10121F
:0D090E0009707BFF7A0879C912091B80FE71
:03000000020800F3
:0C080000787FE4F6D8FD758118020847E7
:1009EB00BB010689828A83E0225002E722BBFE020A
:0909FB00E32289828A83E493223D
:10080C000208DEE493A3F8E493A34003F68001F21C
:10081C0008DFF48029E493A3F85407240CC8C333ED
:10082C00C4540F4420C8834004F456800146F6DFBC
:10083C00E4800B0102040810204080900948E47EFB
:10084C00019360BCA3FF543F30E509541FFEE493B1
:10085C00A360010ECF54C025E060A840B8E493A378
:10086C00FAE493A3F8E493A3C8C582C8CAC583CAA3
:10087C00F0A3C8C582C8CAC583CADFE9DEE780BE5B
:01096F000087
:00000001FF
